{
  "contractName": "AuctionManager",
  "abi": [
    {
      "inputs": [],
      "stateMutability": "nonpayable",
      "type": "constructor"
    },
    {
      "anonymous": false,
      "inputs": [
        {
          "indexed": true,
          "internalType": "uint256",
          "name": "auctionId",
          "type": "uint256"
        },
        {
          "indexed": true,
          "internalType": "address",
          "name": "seller",
          "type": "address"
        },
        {
          "indexed": true,
          "internalType": "address",
          "name": "bidder",
          "type": "address"
        }
      ],
      "name": "AuctionClaimed",
      "type": "event"
    },
    {
      "anonymous": false,
      "inputs": [
        {
          "indexed": true,
          "internalType": "address",
          "name": "seller",
          "type": "address"
        },
        {
          "indexed": true,
          "internalType": "uint256",
          "name": "auctionId",
          "type": "uint256"
        },
        {
          "indexed": true,
          "internalType": "address",
          "name": "tokenAddress",
          "type": "address"
        },
        {
          "indexed": false,
          "internalType": "uint256",
          "name": "tokenId",
          "type": "uint256"
        }
      ],
      "name": "AuctionCreated",
      "type": "event"
    },
    {
      "anonymous": false,
      "inputs": [
        {
          "indexed": true,
          "internalType": "uint256",
          "name": "auctionId",
          "type": "uint256"
        },
        {
          "indexed": true,
          "internalType": "address",
          "name": "buyer",
          "type": "address"
        },
        {
          "indexed": false,
          "internalType": "uint256",
          "name": "amount",
          "type": "uint256"
        }
      ],
      "name": "BidCreated",
      "type": "event"
    },
    {
      "anonymous": false,
      "inputs": [
        {
          "indexed": true,
          "internalType": "uint256",
          "name": "auctionId",
          "type": "uint256"
        },
        {
          "indexed": true,
          "internalType": "address",
          "name": "buyer",
          "type": "address"
        },
        {
          "indexed": false,
          "internalType": "uint256",
          "name": "amount",
          "type": "uint256"
        }
      ],
      "name": "BidRefund",
      "type": "event"
    },
    {
      "inputs": [
        {
          "internalType": "uint256",
          "name": "",
          "type": "uint256"
        }
      ],
      "name": "auctionList",
      "outputs": [
        {
          "internalType": "uint256",
          "name": "id",
          "type": "uint256"
        },
        {
          "internalType": "address payable",
          "name": "seller",
          "type": "address"
        },
        {
          "components": [
            {
              "internalType": "address payable",
              "name": "buyer",
              "type": "address"
            },
            {
              "internalType": "uint256",
              "name": "amount",
              "type": "uint256"
            }
          ],
          "internalType": "struct AuctionManager.Bid",
          "name": "bestBid",
          "type": "tuple"
        },
        {
          "internalType": "uint256",
          "name": "minPrice",
          "type": "uint256"
        },
        {
          "internalType": "uint256",
          "name": "endTimestamp",
          "type": "uint256"
        },
        {
          "internalType": "contract IERC721",
          "name": "token",
          "type": "address"
        },
        {
          "internalType": "uint256",
          "name": "tokenId",
          "type": "uint256"
        },
        {
          "internalType": "bool",
          "name": "claimed",
          "type": "bool"
        }
      ],
      "stateMutability": "view",
      "type": "function",
      "constant": true
    },
    {
      "inputs": [
        {
          "internalType": "uint256",
          "name": "minPrice",
          "type": "uint256"
        },
        {
          "internalType": "uint256",
          "name": "endTimestamp",
          "type": "uint256"
        },
        {
          "internalType": "address",
          "name": "tokenAddress",
          "type": "address"
        },
        {
          "internalType": "uint256",
          "name": "tokenId",
          "type": "uint256"
        }
      ],
      "name": "createAuction",
      "outputs": [
        {
          "internalType": "uint256",
          "name": "",
          "type": "uint256"
        }
      ],
      "stateMutability": "nonpayable",
      "type": "function"
    },
    {
      "inputs": [
        {
          "internalType": "uint256",
          "name": "auctionId",
          "type": "uint256"
        },
        {
          "internalType": "uint256",
          "name": "amount",
          "type": "uint256"
        },
        {
          "internalType": "address payable",
          "name": "bidder",
          "type": "address"
        }
      ],
      "name": "placeBid",
      "outputs": [],
      "stateMutability": "payable",
      "type": "function",
      "payable": true
    },
    {
      "inputs": [
        {
          "internalType": "uint256",
          "name": "auctionId",
          "type": "uint256"
        }
      ],
      "name": "getAuctionWinner",
      "outputs": [
        {
          "internalType": "address",
          "name": "",
          "type": "address"
        },
        {
          "internalType": "uint256",
          "name": "",
          "type": "uint256"
        }
      ],
      "stateMutability": "nonpayable",
      "type": "function"
    },
    {
      "inputs": [
        {
          "internalType": "uint256",
          "name": "auctionId",
          "type": "uint256"
        }
      ],
      "name": "claimAuction",
      "outputs": [],
      "stateMutability": "nonpayable",
      "type": "function"
    },
    {
      "inputs": [],
      "name": "getTime",
      "outputs": [
        {
          "internalType": "uint256",
          "name": "",
          "type": "uint256"
        }
      ],
      "stateMutability": "view",
      "type": "function",
      "constant": true
    }
  ],
  "bytecode": "0x608060405234801561001057600080fd5b506001600081905550611bc4806100286000396000f3fe6080604052600436106100555760003560e01c8063083d353b1461005a578063557ed1ba14610098578063669c0083146100c35780639aafc6c914610107578063ad6561ec14610130578063b1cb48ef1461014c575b600080fd5b34801561006657600080fd5b50610081600480360381019061007c9190611410565b610189565b60405161008f9291906118a1565b60405180910390f35b3480156100a457600080fd5b506100ad610253565b6040516100ba91906119ea565b60405180910390f35b3480156100cf57600080fd5b506100ea60048036038101906100e59190611410565b61025b565b6040516100fe989796959493929190611a05565b60405180910390f35b34801561011357600080fd5b5061012e60048036038101906101299190611410565b61036a565b005b61014a60048036038101906101459190611439565b610aab565b005b34801561015857600080fd5b50610173600480360381019061016e9190611488565b6110c5565b60405161018091906119ea565b60405180910390f35b600080600183815481106101c6577f4e487b7100000000000000000000000000000000000000000000000000000000600052603260045260246000fd5b906000526020600020906009020160020160000160009054906101000a900473ffffffffffffffffffffffffffffffffffffffff1660018481548110610235577f4e487b7100000000000000000000000000000000000000000000000000000000600052603260045260246000fd5b90600052602060002090600902016002016001015491509150915091565b600042905090565b6001818154811061026b57600080fd5b90600052602060002090600902016000915090508060000154908060010160009054906101000a900473ffffffffffffffffffffffffffffffffffffffff1690806002016040518060400160405290816000820160009054906101000a900473ffffffffffffffffffffffffffffffffffffffff1673ffffffffffffffffffffffffffffffffffffffff1673ffffffffffffffffffffffffffffffffffffffff168152602001600182015481525050908060040154908060050154908060060160009054906101000a900473ffffffffffffffffffffffffffffffffffffffff16908060070154908060080160009054906101000a900460ff16905088565b42600182815481106103a5577f4e487b7100000000000000000000000000000000000000000000000000000000600052603260045260246000fd5b906000526020600020906009020160050154106103f7576040517f08c379a00000000000000000000000000000000000000000000000000000000081526004016103ee9061198a565b60405180910390fd5b3373ffffffffffffffffffffffffffffffffffffffff1660018281548110610448577f4e487b7100000000000000000000000000000000000000000000000000000000600052603260045260246000fd5b906000526020600020906009020160020160000160009054906101000a900473ffffffffffffffffffffffffffffffffffffffff1673ffffffffffffffffffffffffffffffffffffffff16148061053557503373ffffffffffffffffffffffffffffffffffffffff16600182815481106104eb577f4e487b7100000000000000000000000000000000000000000000000000000000600052603260045260246000fd5b906000526020600020906009020160010160009054906101000a900473ffffffffffffffffffffffffffffffffffffffff1673ffffffffffffffffffffffffffffffffffffffff16145b610574576040517f08c379a000000000000000000000000000000000000000000000000000000000815260040161056b9061196a565b60405180910390fd5b60001515600182815481106105b2577f4e487b7100000000000000000000000000000000000000000000000000000000600052603260045260246000fd5b906000526020600020906009020160080160009054906101000a900460ff16151514610613576040517f08c379a000000000000000000000000000000000000000000000000000000000815260040161060a906118ea565b60405180910390fd5b600180828154811061064e577f4e487b7100000000000000000000000000000000000000000000000000000000600052603260045260246000fd5b906000526020600020906009020160080160006101000a81548160ff021916908315150217905550600181815481106106b0577f4e487b7100000000000000000000000000000000000000000000000000000000600052603260045260246000fd5b906000526020600020906009020160010160009054906101000a900473ffffffffffffffffffffffffffffffffffffffff1673ffffffffffffffffffffffffffffffffffffffff166108fc60018381548110610735577f4e487b7100000000000000000000000000000000000000000000000000000000600052603260045260246000fd5b9060005260206000209060090201600201600101549081150290604051600060405180830381858888f19350505050158015610775573d6000803e3d6000fd5b50600181815481106107b0577f4e487b7100000000000000000000000000000000000000000000000000000000600052603260045260246000fd5b906000526020600020906009020160060160009054906101000a900473ffffffffffffffffffffffffffffffffffffffff1673ffffffffffffffffffffffffffffffffffffffff166342842e0e60018381548110610837577f4e487b7100000000000000000000000000000000000000000000000000000000600052603260045260246000fd5b906000526020600020906009020160010160009054906101000a900473ffffffffffffffffffffffffffffffffffffffff16600184815481106108a3577f4e487b7100000000000000000000000000000000000000000000000000000000600052603260045260246000fd5b906000526020600020906009020160020160000160009054906101000a900473ffffffffffffffffffffffffffffffffffffffff1660018581548110610912577f4e487b7100000000000000000000000000000000000000000000000000000000600052603260045260246000fd5b9060005260206000209060090201600701546040518463ffffffff1660e01b81526004016109429392919061186a565b600060405180830381600087803b15801561095c57600080fd5b505af1158015610970573d6000803e3d6000fd5b50505050600181815481106109ae577f4e487b7100000000000000000000000000000000000000000000000000000000600052603260045260246000fd5b906000526020600020906009020160020160000160009054906101000a900473ffffffffffffffffffffffffffffffffffffffff1673ffffffffffffffffffffffffffffffffffffffff1660018281548110610a33577f4e487b7100000000000000000000000000000000000000000000000000000000600052603260045260246000fd5b906000526020600020906009020160010160009054906101000a900473ffffffffffffffffffffffffffffffffffffffff1673ffffffffffffffffffffffffffffffffffffffff16827f0ed794ed3998d4208e14b80f794d9ecb1699fdfb1359ff8fbb9044f9783489b660405160405180910390a450565b60026000541415610af1576040517f08c379a0000000000000000000000000000000000000000000000000000000008152600401610ae8906119aa565b60405180910390fd5b60026000819055504260018481548110610b34577f4e487b7100000000000000000000000000000000000000000000000000000000600052603260045260246000fd5b90600052602060002090600902016005015411610b86576040517f08c379a0000000000000000000000000000000000000000000000000000000008152600401610b7d9061194a565b60405180910390fd5b348214610bc8576040517f08c379a0000000000000000000000000000000000000000000000000000000008152600401610bbf906119ca565b60405180910390fd5b600060018481548110610c04577f4e487b7100000000000000000000000000000000000000000000000000000000600052603260045260246000fd5b906000526020600020906009020160405180610100016040529081600082015481526020016001820160009054906101000a900473ffffffffffffffffffffffffffffffffffffffff1673ffffffffffffffffffffffffffffffffffffffff1673ffffffffffffffffffffffffffffffffffffffff168152602001600282016040518060400160405290816000820160009054906101000a900473ffffffffffffffffffffffffffffffffffffffff1673ffffffffffffffffffffffffffffffffffffffff1673ffffffffffffffffffffffffffffffffffffffff168152602001600182015481525050815260200160048201548152602001600582015481526020016006820160009054906101000a900473ffffffffffffffffffffffffffffffffffffffff1673ffffffffffffffffffffffffffffffffffffffff1673ffffffffffffffffffffffffffffffffffffffff168152602001600782015481526020016008820160009054906101000a900460ff16151515158152505090508060600151831015610dca576040517f08c379a0000000000000000000000000000000000000000000000000000000008152600401610dc19061190a565b60405180910390fd5b8060400151602001518311610e14576040517f08c379a0000000000000000000000000000000000000000000000000000000008152600401610e0b906118ca565b60405180910390fd5b60008160400151905060405180604001604052808473ffffffffffffffffffffffffffffffffffffffff1681526020018581525082604001819052508160018681548110610e8b577f4e487b7100000000000000000000000000000000000000000000000000000000600052603260045260246000fd5b90600052602060002090600902016000820151816000015560208201518160010160006101000a81548173ffffffffffffffffffffffffffffffffffffffff021916908373ffffffffffffffffffffffffffffffffffffffff16021790555060408201518160020160008201518160000160006101000a81548173ffffffffffffffffffffffffffffffffffffffff021916908373ffffffffffffffffffffffffffffffffffffffff160217905550602082015181600101555050606082015181600401556080820151816005015560a08201518160060160006101000a81548173ffffffffffffffffffffffffffffffffffffffff021916908373ffffffffffffffffffffffffffffffffffffffff16021790555060c0820151816007015560e08201518160080160006101000a81548160ff021916908315150217905550905050600073ffffffffffffffffffffffffffffffffffffffff16816000015173ffffffffffffffffffffffffffffffffffffffff16146110675761100f8161137f565b806000015173ffffffffffffffffffffffffffffffffffffffff16857f81f21d91e6abb502b36c7adfa1e0920a81cff658f5d8a7c7efb0baccd093090c836020015160405161105e91906119ea565b60405180910390a35b8273ffffffffffffffffffffffffffffffffffffffff16857f0bda7f7cf42011b27b057b83f3bf21f963b84eb591478e6b413b18d7872cd37a866040516110ae91906119ea565b60405180910390a350506001600081905550505050565b6000428411611109576040517f08c379a00000000000000000000000000000000000000000000000000000000081526004016111009061192a565b60405180910390fd5b60006001805490509050600084905060016040518061010001604052808481526020013373ffffffffffffffffffffffffffffffffffffffff1681526020016040518060400160405280600073ffffffffffffffffffffffffffffffffffffffff168152602001600081525081526020018981526020018881526020018373ffffffffffffffffffffffffffffffffffffffff1681526020018681526020016000151581525090806001815401808255809150506001900390600052602060002090600902016000909190919091506000820151816000015560208201518160010160006101000a81548173ffffffffffffffffffffffffffffffffffffffff021916908373ffffffffffffffffffffffffffffffffffffffff16021790555060408201518160020160008201518160000160006101000a81548173ffffffffffffffffffffffffffffffffffffffff021916908373ffffffffffffffffffffffffffffffffffffffff160217905550602082015181600101555050606082015181600401556080820151816005015560a08201518160060160006101000a81548173ffffffffffffffffffffffffffffffffffffffff021916908373ffffffffffffffffffffffffffffffffffffffff16021790555060c0820151816007015560e08201518160080160006101000a81548160ff02191690831515021790555050508473ffffffffffffffffffffffffffffffffffffffff16823373ffffffffffffffffffffffffffffffffffffffff167fc020eaff962593ba4d8f22dfe59abd3cefe8dbdc11d3cf03db31a97ef4041fda8760405161136a91906119ea565b60405180910390a48192505050949350505050565b806000015173ffffffffffffffffffffffffffffffffffffffff166108fc82602001519081150290604051600060405180830381858888f193505050501580156113cd573d6000803e3d6000fd5b5050565b6000813590506113e081611b49565b92915050565b6000813590506113f581611b60565b92915050565b60008135905061140a81611b77565b92915050565b60006020828403121561142257600080fd5b6000611430848285016113fb565b91505092915050565b60008060006060848603121561144e57600080fd5b600061145c868287016113fb565b935050602061146d868287016113fb565b925050604061147e868287016113e6565b9150509250925092565b6000806000806080858703121561149e57600080fd5b60006114ac878288016113fb565b94505060206114bd878288016113fb565b93505060406114ce878288016113d1565b92505060606114df878288016113fb565b91505092959194509250565b6114f481611aef565b82525050565b61150381611aa7565b82525050565b61151281611aa7565b82525050565b61152181611a95565b82525050565b61153081611ab9565b82525050565b61153f81611b01565b82525050565b6000611552602d83611a84565b91507f796f757220626964206973206e6f7420686967686572207468616e207072657660008301527f696f7573206265737420626964000000000000000000000000000000000000006020830152604082019050919050565b60006115b8601783611a84565b91507f61756374696f6e20616c726561647920636c61696d65640000000000000000006000830152602082019050919050565b60006115f8602f83611a84565b91507f796f75722062696420697320736d616c6c6572207468616e206d696e5072696360008301527f65207365742062792073656c6c657200000000000000000000000000000000006020830152604082019050919050565b600061165e602783611a84565b91507f61756374696f6e20656e642074696d657374616d70206d75737420626520696e60008301527f20667574757265000000000000000000000000000000000000000000000000006020830152604082019050919050565b60006116c4601083611a84565b91507f61756374696f6e2066696e6973686564000000000000000000000000000000006000830152602082019050919050565b6000611704601c83611a84565b91507f796f7520646964206e6f742077696e20746869732061756374696f6e000000006000830152602082019050919050565b6000611744601b83611a84565b91507f61756374696f6e206973206e6f742066696e69736865642079657400000000006000830152602082019050919050565b6000611784601f83611a84565b91507f5265656e7472616e637947756172643a207265656e7472616e742063616c6c006000830152602082019050919050565b60006117c4602783611a84565b91507f796f752068617665206e6f742073656e6420657175616c20616d6f756e74206f60008301527f66206574686572000000000000000000000000000000000000000000000000006020830152604082019050919050565b60408201600082015161183360008501826114fa565b506020820151611846602085018261184c565b50505050565b61185581611ae5565b82525050565b61186481611ae5565b82525050565b600060608201905061187f60008301866114eb565b61188c60208301856114eb565b611899604083018461185b565b949350505050565b60006040820190506118b66000830185611518565b6118c3602083018461185b565b9392505050565b600060208201905081810360008301526118e381611545565b9050919050565b60006020820190508181036000830152611903816115ab565b9050919050565b60006020820190508181036000830152611923816115eb565b9050919050565b6000602082019050818103600083015261194381611651565b9050919050565b60006020820190508181036000830152611963816116b7565b9050919050565b60006020820190508181036000830152611983816116f7565b9050919050565b600060208201905081810360008301526119a381611737565b9050919050565b600060208201905081810360008301526119c381611777565b9050919050565b600060208201905081810360008301526119e3816117b7565b9050919050565b60006020820190506119ff600083018461185b565b92915050565b600061012082019050611a1b600083018b61185b565b611a28602083018a611509565b611a35604083018961181d565b611a42608083018861185b565b611a4f60a083018761185b565b611a5c60c0830186611536565b611a6960e083018561185b565b611a77610100830184611527565b9998505050505050505050565b600082825260208201905092915050565b6000611aa082611ac5565b9050919050565b6000611ab282611ac5565b9050919050565b60008115159050919050565b600073ffffffffffffffffffffffffffffffffffffffff82169050919050565b6000819050919050565b6000611afa82611b25565b9050919050565b6000611b0c82611b13565b9050919050565b6000611b1e82611ac5565b9050919050565b6000611b3082611b37565b9050919050565b6000611b4282611ac5565b9050919050565b611b5281611a95565b8114611b5d57600080fd5b50565b611b6981611aa7565b8114611b7457600080fd5b50565b611b8081611ae5565b8114611b8b57600080fd5b5056fea26469706673582212205c38fb8e6d0b342a7adc6705eba3c436b073805d6f0a9e24a9d001e88c970ff764736f6c63430008000033",
  "immutableReferences": {},
  "source": "pragma solidity ^0.8.0;\n\nimport '@openzeppelin/contracts/security/ReentrancyGuard.sol';\nimport \"@openzeppelin/contracts/token/ERC721/IERC721.sol\";\n\ncontract AuctionManager is ReentrancyGuard {\n\n    struct Bid {\n        address payable buyer;\n        uint amount;\n    }\n\n    struct Auction {\n        uint id;\n        address payable seller;\n        Bid bestBid;\n        uint minPrice;\n        uint endTimestamp;\n        IERC721 token;\n        uint tokenId;\n        bool claimed;\n    }\n\n    Auction[] public auctionList;\n\n    event AuctionCreated(address indexed seller, uint indexed auctionId, address indexed tokenAddress, uint tokenId);\n    event AuctionClaimed(uint indexed auctionId, address indexed seller, address indexed bidder);\n    event BidCreated(uint indexed auctionId, address indexed buyer, uint amount);\n    event BidRefund(uint indexed auctionId, address indexed buyer, uint amount);\n\n    constructor(){}\n\n    function createAuction(uint minPrice, uint endTimestamp, address tokenAddress, uint tokenId) external returns(uint) {\n        require(endTimestamp > block.timestamp, 'auction end timestamp must be in future');\n        uint auctionId = auctionList.length;\n        IERC721 tokenContract = IERC721(tokenAddress);\n        auctionList.push(Auction(\n            auctionId,\n            payable(msg.sender),\n            Bid(payable(address(0)), 0),\n            minPrice,\n            endTimestamp,\n            tokenContract,\n            tokenId,\n            false\n        ));\n        emit AuctionCreated(msg.sender, auctionId, tokenAddress, tokenId);\n        return auctionId;\n    }\n\n    function placeBid(uint auctionId, uint amount, address payable bidder) nonReentrant external payable{\n        require(auctionList[auctionId].endTimestamp > block.timestamp, 'auction finished');\n        require(amount == msg.value, 'you have not send equal amount of ether');\n        Auction memory a = auctionList[auctionId];\n        require(amount >= a.minPrice, 'your bid is smaller than minPrice set by seller');\n        require(amount > a.bestBid.amount, 'your bid is not higher than previous best bid');\n        Bid memory prevBestBid = a.bestBid;\n        a.bestBid = Bid(bidder, amount);\n        auctionList[auctionId] = a;\n        if (prevBestBid.buyer != address(0)){\n            refundBid(prevBestBid);\n            emit BidRefund(auctionId, prevBestBid.buyer, prevBestBid.amount);\n        }\n        emit BidCreated(auctionId, bidder, amount);\n    }\n\n    function refundBid(Bid memory bid) private {\n        bid.buyer.transfer(bid.amount);\n    }\n\n    function getAuctionWinner(uint auctionId) public returns(address, uint){\n        return (auctionList[auctionId].bestBid.buyer, auctionList[auctionId].bestBid.amount);\n    }\n\n    function claimAuction(uint auctionId) external {\n        require(auctionList[auctionId].endTimestamp < block.timestamp, 'auction is not finished yet');\n        require(auctionList[auctionId].bestBid.buyer == msg.sender || auctionList[auctionId].seller == msg.sender,\n            'you did not win this auction');\n//        transfer token to buyer\n        require(auctionList[auctionId].claimed == false, 'auction already claimed');\n        auctionList[auctionId].claimed = true;\n        auctionList[auctionId].seller.transfer(auctionList[auctionId].bestBid.amount);\n        auctionList[auctionId].token.safeTransferFrom(\n            auctionList[auctionId].seller,\n            auctionList[auctionId].bestBid.buyer,\n            auctionList[auctionId].tokenId\n        );\n        emit AuctionClaimed(auctionId, auctionList[auctionId].seller, auctionList[auctionId].bestBid.buyer);\n    }\n\n    function getTime() public view returns (uint256) {\n        return block.timestamp;\n    }\n}\n",
  "sourcePath": "/Users/darko/dev/ethereum/def-ebay/contracts/AuctionManager.sol",
  "compiler": {
    "name": "solc",
    "version": "0.8.0+commit.c7dfd78e.Emscripten.clang"
  },
  "schemaVersion": "3.4.1",
  "updatedAt": "2021-08-11T12:16:04.373Z",
  "networkType": "ethereum",
  "devdoc": {
    "kind": "dev",
    "methods": {},
    "version": 1
  },
  "userdoc": {
    "kind": "user",
    "methods": {},
    "version": 1
  }
}