{
  "contractName": "AuctionManager",
  "abi": [
    {
      "inputs": [],
      "stateMutability": "nonpayable",
      "type": "constructor"
    },
    {
      "anonymous": false,
      "inputs": [
        {
          "indexed": true,
          "internalType": "uint256",
          "name": "auctionId",
          "type": "uint256"
        },
        {
          "indexed": true,
          "internalType": "address",
          "name": "seller",
          "type": "address"
        },
        {
          "indexed": true,
          "internalType": "address",
          "name": "bidder",
          "type": "address"
        }
      ],
      "name": "AuctionClaimed",
      "type": "event"
    },
    {
      "anonymous": false,
      "inputs": [
        {
          "indexed": true,
          "internalType": "address",
          "name": "seller",
          "type": "address"
        },
        {
          "indexed": true,
          "internalType": "uint256",
          "name": "auctionId",
          "type": "uint256"
        },
        {
          "indexed": true,
          "internalType": "address",
          "name": "tokenAddress",
          "type": "address"
        },
        {
          "indexed": false,
          "internalType": "uint256",
          "name": "tokenId",
          "type": "uint256"
        }
      ],
      "name": "AuctionCreated",
      "type": "event"
    },
    {
      "anonymous": false,
      "inputs": [
        {
          "indexed": true,
          "internalType": "uint256",
          "name": "auctionId",
          "type": "uint256"
        },
        {
          "indexed": true,
          "internalType": "address",
          "name": "buyer",
          "type": "address"
        },
        {
          "indexed": false,
          "internalType": "uint256",
          "name": "amount",
          "type": "uint256"
        }
      ],
      "name": "BidCreated",
      "type": "event"
    },
    {
      "anonymous": false,
      "inputs": [
        {
          "indexed": true,
          "internalType": "uint256",
          "name": "auctionId",
          "type": "uint256"
        },
        {
          "indexed": true,
          "internalType": "address",
          "name": "buyer",
          "type": "address"
        },
        {
          "indexed": false,
          "internalType": "uint256",
          "name": "amount",
          "type": "uint256"
        }
      ],
      "name": "BidRefund",
      "type": "event"
    },
    {
      "inputs": [
        {
          "internalType": "uint256",
          "name": "",
          "type": "uint256"
        }
      ],
      "name": "auctionList",
      "outputs": [
        {
          "internalType": "uint256",
          "name": "id",
          "type": "uint256"
        },
        {
          "internalType": "address payable",
          "name": "seller",
          "type": "address"
        },
        {
          "components": [
            {
              "internalType": "address payable",
              "name": "buyer",
              "type": "address"
            },
            {
              "internalType": "uint256",
              "name": "amount",
              "type": "uint256"
            }
          ],
          "internalType": "struct AuctionManager.Bid",
          "name": "bestBid",
          "type": "tuple"
        },
        {
          "internalType": "uint256",
          "name": "minPrice",
          "type": "uint256"
        },
        {
          "internalType": "uint256",
          "name": "endTimestamp",
          "type": "uint256"
        },
        {
          "internalType": "contract IERC721",
          "name": "token",
          "type": "address"
        },
        {
          "internalType": "uint256",
          "name": "tokenId",
          "type": "uint256"
        },
        {
          "internalType": "bool",
          "name": "claimed",
          "type": "bool"
        }
      ],
      "stateMutability": "view",
      "type": "function",
      "constant": true
    },
    {
      "inputs": [
        {
          "internalType": "uint256",
          "name": "minPrice",
          "type": "uint256"
        },
        {
          "internalType": "uint256",
          "name": "endTimestamp",
          "type": "uint256"
        },
        {
          "internalType": "address",
          "name": "tokenAddress",
          "type": "address"
        },
        {
          "internalType": "uint256",
          "name": "tokenId",
          "type": "uint256"
        }
      ],
      "name": "createAuction",
      "outputs": [
        {
          "internalType": "uint256",
          "name": "",
          "type": "uint256"
        }
      ],
      "stateMutability": "nonpayable",
      "type": "function"
    },
    {
      "inputs": [
        {
          "internalType": "uint256",
          "name": "auctionId",
          "type": "uint256"
        },
        {
          "internalType": "uint256",
          "name": "amount",
          "type": "uint256"
        },
        {
          "internalType": "address payable",
          "name": "bidder",
          "type": "address"
        }
      ],
      "name": "placeBid",
      "outputs": [],
      "stateMutability": "payable",
      "type": "function",
      "payable": true
    },
    {
      "inputs": [
        {
          "internalType": "uint256",
          "name": "auctionId",
          "type": "uint256"
        }
      ],
      "name": "getAuctionWinner",
      "outputs": [
        {
          "internalType": "address",
          "name": "",
          "type": "address"
        },
        {
          "internalType": "uint256",
          "name": "",
          "type": "uint256"
        }
      ],
      "stateMutability": "nonpayable",
      "type": "function"
    },
    {
      "inputs": [
        {
          "internalType": "uint256",
          "name": "auctionId",
          "type": "uint256"
        }
      ],
      "name": "claimAuction",
      "outputs": [],
      "stateMutability": "nonpayable",
      "type": "function"
    },
    {
      "inputs": [],
      "name": "getTime",
      "outputs": [
        {
          "internalType": "uint256",
          "name": "",
          "type": "uint256"
        }
      ],
      "stateMutability": "view",
      "type": "function",
      "constant": true
    },
    {
      "inputs": [],
      "name": "getAuctions",
      "outputs": [
        {
          "components": [
            {
              "internalType": "uint256",
              "name": "id",
              "type": "uint256"
            },
            {
              "internalType": "address payable",
              "name": "seller",
              "type": "address"
            },
            {
              "components": [
                {
                  "internalType": "address payable",
                  "name": "buyer",
                  "type": "address"
                },
                {
                  "internalType": "uint256",
                  "name": "amount",
                  "type": "uint256"
                }
              ],
              "internalType": "struct AuctionManager.Bid",
              "name": "bestBid",
              "type": "tuple"
            },
            {
              "internalType": "uint256",
              "name": "minPrice",
              "type": "uint256"
            },
            {
              "internalType": "uint256",
              "name": "endTimestamp",
              "type": "uint256"
            },
            {
              "internalType": "contract IERC721",
              "name": "token",
              "type": "address"
            },
            {
              "internalType": "uint256",
              "name": "tokenId",
              "type": "uint256"
            },
            {
              "internalType": "bool",
              "name": "claimed",
              "type": "bool"
            }
          ],
          "internalType": "struct AuctionManager.Auction[]",
          "name": "",
          "type": "tuple[]"
        }
      ],
      "stateMutability": "view",
      "type": "function",
      "constant": true
    }
  ],
  "bytecode": "0x608060405234801561001057600080fd5b506001600081905550611f8f806100286000396000f3fe6080604052600436106100705760003560e01c80639aafc6c91161004e5780639aafc6c914610122578063ad6561ec1461014b578063b1cb48ef14610167578063d7c06919146101a457610070565b8063083d353b14610075578063557ed1ba146100b3578063669c0083146100de575b600080fd5b34801561008157600080fd5b5061009c60048036038101906100979190611619565b6101cf565b6040516100aa929190611c11565b60405180910390f35b3480156100bf57600080fd5b506100c8610299565b6040516100d59190611d7c565b60405180910390f35b3480156100ea57600080fd5b5061010560048036038101906101009190611619565b6102a1565b604051610119989796959493929190611d97565b60405180910390f35b34801561012e57600080fd5b5061014960048036038101906101449190611619565b6103b0565b005b61016560048036038101906101609190611642565b610af1565b005b34801561017357600080fd5b5061018e60048036038101906101899190611691565b61110b565b60405161019b9190611d7c565b60405180910390f35b3480156101b057600080fd5b506101b96113c5565b6040516101c69190611c3a565b60405180910390f35b6000806001838154811061020c577f4e487b7100000000000000000000000000000000000000000000000000000000600052603260045260246000fd5b906000526020600020906009020160020160000160009054906101000a900473ffffffffffffffffffffffffffffffffffffffff166001848154811061027b577f4e487b7100000000000000000000000000000000000000000000000000000000600052603260045260246000fd5b90600052602060002090600902016002016001015491509150915091565b600042905090565b600181815481106102b157600080fd5b90600052602060002090600902016000915090508060000154908060010160009054906101000a900473ffffffffffffffffffffffffffffffffffffffff1690806002016040518060400160405290816000820160009054906101000a900473ffffffffffffffffffffffffffffffffffffffff1673ffffffffffffffffffffffffffffffffffffffff1673ffffffffffffffffffffffffffffffffffffffff168152602001600182015481525050908060040154908060050154908060060160009054906101000a900473ffffffffffffffffffffffffffffffffffffffff16908060070154908060080160009054906101000a900460ff16905088565b42600182815481106103eb577f4e487b7100000000000000000000000000000000000000000000000000000000600052603260045260246000fd5b9060005260206000209060090201600501541061043d576040517f08c379a000000000000000000000000000000000000000000000000000000000815260040161043490611d1c565b60405180910390fd5b3373ffffffffffffffffffffffffffffffffffffffff166001828154811061048e577f4e487b7100000000000000000000000000000000000000000000000000000000600052603260045260246000fd5b906000526020600020906009020160020160000160009054906101000a900473ffffffffffffffffffffffffffffffffffffffff1673ffffffffffffffffffffffffffffffffffffffff16148061057b57503373ffffffffffffffffffffffffffffffffffffffff1660018281548110610531577f4e487b7100000000000000000000000000000000000000000000000000000000600052603260045260246000fd5b906000526020600020906009020160010160009054906101000a900473ffffffffffffffffffffffffffffffffffffffff1673ffffffffffffffffffffffffffffffffffffffff16145b6105ba576040517f08c379a00000000000000000000000000000000000000000000000000000000081526004016105b190611cfc565b60405180910390fd5b60001515600182815481106105f8577f4e487b7100000000000000000000000000000000000000000000000000000000600052603260045260246000fd5b906000526020600020906009020160080160009054906101000a900460ff16151514610659576040517f08c379a000000000000000000000000000000000000000000000000000000000815260040161065090611c7c565b60405180910390fd5b6001808281548110610694577f4e487b7100000000000000000000000000000000000000000000000000000000600052603260045260246000fd5b906000526020600020906009020160080160006101000a81548160ff021916908315150217905550600181815481106106f6577f4e487b7100000000000000000000000000000000000000000000000000000000600052603260045260246000fd5b906000526020600020906009020160010160009054906101000a900473ffffffffffffffffffffffffffffffffffffffff1673ffffffffffffffffffffffffffffffffffffffff166108fc6001838154811061077b577f4e487b7100000000000000000000000000000000000000000000000000000000600052603260045260246000fd5b9060005260206000209060090201600201600101549081150290604051600060405180830381858888f193505050501580156107bb573d6000803e3d6000fd5b50600181815481106107f6577f4e487b7100000000000000000000000000000000000000000000000000000000600052603260045260246000fd5b906000526020600020906009020160060160009054906101000a900473ffffffffffffffffffffffffffffffffffffffff1673ffffffffffffffffffffffffffffffffffffffff166342842e0e6001838154811061087d577f4e487b7100000000000000000000000000000000000000000000000000000000600052603260045260246000fd5b906000526020600020906009020160010160009054906101000a900473ffffffffffffffffffffffffffffffffffffffff16600184815481106108e9577f4e487b7100000000000000000000000000000000000000000000000000000000600052603260045260246000fd5b906000526020600020906009020160020160000160009054906101000a900473ffffffffffffffffffffffffffffffffffffffff1660018581548110610958577f4e487b7100000000000000000000000000000000000000000000000000000000600052603260045260246000fd5b9060005260206000209060090201600701546040518463ffffffff1660e01b815260040161098893929190611bda565b600060405180830381600087803b1580156109a257600080fd5b505af11580156109b6573d6000803e3d6000fd5b50505050600181815481106109f4577f4e487b7100000000000000000000000000000000000000000000000000000000600052603260045260246000fd5b906000526020600020906009020160020160000160009054906101000a900473ffffffffffffffffffffffffffffffffffffffff1673ffffffffffffffffffffffffffffffffffffffff1660018281548110610a79577f4e487b7100000000000000000000000000000000000000000000000000000000600052603260045260246000fd5b906000526020600020906009020160010160009054906101000a900473ffffffffffffffffffffffffffffffffffffffff1673ffffffffffffffffffffffffffffffffffffffff16827f0ed794ed3998d4208e14b80f794d9ecb1699fdfb1359ff8fbb9044f9783489b660405160405180910390a450565b60026000541415610b37576040517f08c379a0000000000000000000000000000000000000000000000000000000008152600401610b2e90611d3c565b60405180910390fd5b60026000819055504260018481548110610b7a577f4e487b7100000000000000000000000000000000000000000000000000000000600052603260045260246000fd5b90600052602060002090600902016005015411610bcc576040517f08c379a0000000000000000000000000000000000000000000000000000000008152600401610bc390611cdc565b60405180910390fd5b348214610c0e576040517f08c379a0000000000000000000000000000000000000000000000000000000008152600401610c0590611d5c565b60405180910390fd5b600060018481548110610c4a577f4e487b7100000000000000000000000000000000000000000000000000000000600052603260045260246000fd5b906000526020600020906009020160405180610100016040529081600082015481526020016001820160009054906101000a900473ffffffffffffffffffffffffffffffffffffffff1673ffffffffffffffffffffffffffffffffffffffff1673ffffffffffffffffffffffffffffffffffffffff168152602001600282016040518060400160405290816000820160009054906101000a900473ffffffffffffffffffffffffffffffffffffffff1673ffffffffffffffffffffffffffffffffffffffff1673ffffffffffffffffffffffffffffffffffffffff168152602001600182015481525050815260200160048201548152602001600582015481526020016006820160009054906101000a900473ffffffffffffffffffffffffffffffffffffffff1673ffffffffffffffffffffffffffffffffffffffff1673ffffffffffffffffffffffffffffffffffffffff168152602001600782015481526020016008820160009054906101000a900460ff16151515158152505090508060600151831015610e10576040517f08c379a0000000000000000000000000000000000000000000000000000000008152600401610e0790611c9c565b60405180910390fd5b8060400151602001518311610e5a576040517f08c379a0000000000000000000000000000000000000000000000000000000008152600401610e5190611c5c565b60405180910390fd5b60008160400151905060405180604001604052808473ffffffffffffffffffffffffffffffffffffffff1681526020018581525082604001819052508160018681548110610ed1577f4e487b7100000000000000000000000000000000000000000000000000000000600052603260045260246000fd5b90600052602060002090600902016000820151816000015560208201518160010160006101000a81548173ffffffffffffffffffffffffffffffffffffffff021916908373ffffffffffffffffffffffffffffffffffffffff16021790555060408201518160020160008201518160000160006101000a81548173ffffffffffffffffffffffffffffffffffffffff021916908373ffffffffffffffffffffffffffffffffffffffff160217905550602082015181600101555050606082015181600401556080820151816005015560a08201518160060160006101000a81548173ffffffffffffffffffffffffffffffffffffffff021916908373ffffffffffffffffffffffffffffffffffffffff16021790555060c0820151816007015560e08201518160080160006101000a81548160ff021916908315150217905550905050600073ffffffffffffffffffffffffffffffffffffffff16816000015173ffffffffffffffffffffffffffffffffffffffff16146110ad5761105581611588565b806000015173ffffffffffffffffffffffffffffffffffffffff16857f81f21d91e6abb502b36c7adfa1e0920a81cff658f5d8a7c7efb0baccd093090c83602001516040516110a49190611d7c565b60405180910390a35b8273ffffffffffffffffffffffffffffffffffffffff16857f0bda7f7cf42011b27b057b83f3bf21f963b84eb591478e6b413b18d7872cd37a866040516110f49190611d7c565b60405180910390a350506001600081905550505050565b600042841161114f576040517f08c379a000000000000000000000000000000000000000000000000000000000815260040161114690611cbc565b60405180910390fd5b60006001805490509050600084905060016040518061010001604052808481526020013373ffffffffffffffffffffffffffffffffffffffff1681526020016040518060400160405280600073ffffffffffffffffffffffffffffffffffffffff168152602001600081525081526020018981526020018881526020018373ffffffffffffffffffffffffffffffffffffffff1681526020018681526020016000151581525090806001815401808255809150506001900390600052602060002090600902016000909190919091506000820151816000015560208201518160010160006101000a81548173ffffffffffffffffffffffffffffffffffffffff021916908373ffffffffffffffffffffffffffffffffffffffff16021790555060408201518160020160008201518160000160006101000a81548173ffffffffffffffffffffffffffffffffffffffff021916908373ffffffffffffffffffffffffffffffffffffffff160217905550602082015181600101555050606082015181600401556080820151816005015560a08201518160060160006101000a81548173ffffffffffffffffffffffffffffffffffffffff021916908373ffffffffffffffffffffffffffffffffffffffff16021790555060c0820151816007015560e08201518160080160006101000a81548160ff02191690831515021790555050508473ffffffffffffffffffffffffffffffffffffffff16823373ffffffffffffffffffffffffffffffffffffffff167fc020eaff962593ba4d8f22dfe59abd3cefe8dbdc11d3cf03db31a97ef4041fda876040516113b09190611d7c565b60405180910390a48192505050949350505050565b60606001805480602002602001604051908101604052809291908181526020016000905b8282101561157f578382906000526020600020906009020160405180610100016040529081600082015481526020016001820160009054906101000a900473ffffffffffffffffffffffffffffffffffffffff1673ffffffffffffffffffffffffffffffffffffffff1673ffffffffffffffffffffffffffffffffffffffff168152602001600282016040518060400160405290816000820160009054906101000a900473ffffffffffffffffffffffffffffffffffffffff1673ffffffffffffffffffffffffffffffffffffffff1673ffffffffffffffffffffffffffffffffffffffff168152602001600182015481525050815260200160048201548152602001600582015481526020016006820160009054906101000a900473ffffffffffffffffffffffffffffffffffffffff1673ffffffffffffffffffffffffffffffffffffffff1673ffffffffffffffffffffffffffffffffffffffff168152602001600782015481526020016008820160009054906101000a900460ff161515151581525050815260200190600101906113e9565b50505050905090565b806000015173ffffffffffffffffffffffffffffffffffffffff166108fc82602001519081150290604051600060405180830381858888f193505050501580156115d6573d6000803e3d6000fd5b5050565b6000813590506115e981611f14565b92915050565b6000813590506115fe81611f2b565b92915050565b60008135905061161381611f42565b92915050565b60006020828403121561162b57600080fd5b600061163984828501611604565b91505092915050565b60008060006060848603121561165757600080fd5b600061166586828701611604565b935050602061167686828701611604565b9250506040611687868287016115ef565b9150509250925092565b600080600080608085870312156116a757600080fd5b60006116b587828801611604565b94505060206116c687828801611604565b93505060406116d7878288016115da565b92505060606116e887828801611604565b91505092959194509250565b60006117008383611abb565b6101208301905092915050565b61171681611eba565b82525050565b61172581611e72565b82525050565b61173481611e72565b82525050565b61174381611e60565b82525050565b600061175482611e26565b61175e8185611e3e565b935061176983611e16565b8060005b8381101561179a57815161178188826116f4565b975061178c83611e31565b92505060018101905061176d565b5085935050505092915050565b6117b081611e84565b82525050565b6117bf81611e84565b82525050565b6117ce81611ecc565b82525050565b6117dd81611ecc565b82525050565b60006117f0602d83611e4f565b91507f796f757220626964206973206e6f7420686967686572207468616e207072657660008301527f696f7573206265737420626964000000000000000000000000000000000000006020830152604082019050919050565b6000611856601783611e4f565b91507f61756374696f6e20616c726561647920636c61696d65640000000000000000006000830152602082019050919050565b6000611896602f83611e4f565b91507f796f75722062696420697320736d616c6c6572207468616e206d696e5072696360008301527f65207365742062792073656c6c657200000000000000000000000000000000006020830152604082019050919050565b60006118fc602783611e4f565b91507f61756374696f6e20656e642074696d657374616d70206d75737420626520696e60008301527f20667574757265000000000000000000000000000000000000000000000000006020830152604082019050919050565b6000611962601083611e4f565b91507f61756374696f6e2066696e6973686564000000000000000000000000000000006000830152602082019050919050565b60006119a2601c83611e4f565b91507f796f7520646964206e6f742077696e20746869732061756374696f6e000000006000830152602082019050919050565b60006119e2601b83611e4f565b91507f61756374696f6e206973206e6f742066696e69736865642079657400000000006000830152602082019050919050565b6000611a22601f83611e4f565b91507f5265656e7472616e637947756172643a207265656e7472616e742063616c6c006000830152602082019050919050565b6000611a62602783611e4f565b91507f796f752068617665206e6f742073656e6420657175616c20616d6f756e74206f60008301527f66206574686572000000000000000000000000000000000000000000000000006020830152604082019050919050565b61012082016000820151611ad26000850182611bbc565b506020820151611ae5602085018261171c565b506040820151611af86040850182611b5e565b506060820151611b0b6080850182611bbc565b506080820151611b1e60a0850182611bbc565b5060a0820151611b3160c08501826117c5565b5060c0820151611b4460e0850182611bbc565b5060e0820151611b586101008501826117a7565b50505050565b604082016000820151611b74600085018261171c565b506020820151611b876020850182611bbc565b50505050565b604082016000820151611ba3600085018261171c565b506020820151611bb66020850182611bbc565b50505050565b611bc581611eb0565b82525050565b611bd481611eb0565b82525050565b6000606082019050611bef600083018661170d565b611bfc602083018561170d565b611c096040830184611bcb565b949350505050565b6000604082019050611c26600083018561173a565b611c336020830184611bcb565b9392505050565b60006020820190508181036000830152611c548184611749565b905092915050565b60006020820190508181036000830152611c75816117e3565b9050919050565b60006020820190508181036000830152611c9581611849565b9050919050565b60006020820190508181036000830152611cb581611889565b9050919050565b60006020820190508181036000830152611cd5816118ef565b9050919050565b60006020820190508181036000830152611cf581611955565b9050919050565b60006020820190508181036000830152611d1581611995565b9050919050565b60006020820190508181036000830152611d35816119d5565b9050919050565b60006020820190508181036000830152611d5581611a15565b9050919050565b60006020820190508181036000830152611d7581611a55565b9050919050565b6000602082019050611d916000830184611bcb565b92915050565b600061012082019050611dad600083018b611bcb565b611dba602083018a61172b565b611dc76040830189611b8d565b611dd46080830188611bcb565b611de160a0830187611bcb565b611dee60c08301866117d4565b611dfb60e0830185611bcb565b611e096101008301846117b6565b9998505050505050505050565b6000819050602082019050919050565b600081519050919050565b6000602082019050919050565b600082825260208201905092915050565b600082825260208201905092915050565b6000611e6b82611e90565b9050919050565b6000611e7d82611e90565b9050919050565b60008115159050919050565b600073ffffffffffffffffffffffffffffffffffffffff82169050919050565b6000819050919050565b6000611ec582611ef0565b9050919050565b6000611ed782611ede565b9050919050565b6000611ee982611e90565b9050919050565b6000611efb82611f02565b9050919050565b6000611f0d82611e90565b9050919050565b611f1d81611e60565b8114611f2857600080fd5b50565b611f3481611e72565b8114611f3f57600080fd5b50565b611f4b81611eb0565b8114611f5657600080fd5b5056fea2646970667358221220862b7e7b94248141ede1bfb792403206ac3a67c4a98d8ab4164820c0e3d327a964736f6c63430008000033",
  "immutableReferences": {},
  "source": "pragma solidity ^0.8.0;\n\nimport '@openzeppelin/contracts/security/ReentrancyGuard.sol';\nimport \"@openzeppelin/contracts/token/ERC721/IERC721.sol\";\n\ncontract AuctionManager is ReentrancyGuard {\n\n    struct Bid {\n        address payable buyer;\n        uint amount;\n    }\n\n    struct Auction {\n        uint id;\n        address payable seller;\n        Bid bestBid;\n        uint minPrice;\n        uint endTimestamp;\n        IERC721 token;\n        uint tokenId;\n        bool claimed;\n    }\n\n    Auction[] public auctionList;\n\n    event AuctionCreated(address indexed seller, uint indexed auctionId, address indexed tokenAddress, uint tokenId);\n    event AuctionClaimed(uint indexed auctionId, address indexed seller, address indexed bidder);\n    event BidCreated(uint indexed auctionId, address indexed buyer, uint amount);\n    event BidRefund(uint indexed auctionId, address indexed buyer, uint amount);\n\n    constructor(){}\n\n    function createAuction(uint minPrice, uint endTimestamp, address tokenAddress, uint tokenId) external returns(uint) {\n        require(endTimestamp > block.timestamp, 'auction end timestamp must be in future');\n        uint auctionId = auctionList.length;\n        IERC721 tokenContract = IERC721(tokenAddress);\n        auctionList.push(Auction(\n            auctionId,\n            payable(msg.sender),\n            Bid(payable(address(0)), 0),\n            minPrice,\n            endTimestamp,\n            tokenContract,\n            tokenId,\n            false\n        ));\n        emit AuctionCreated(msg.sender, auctionId, tokenAddress, tokenId);\n        return auctionId;\n    }\n\n    function placeBid(uint auctionId, uint amount, address payable bidder) nonReentrant external payable{\n        require(auctionList[auctionId].endTimestamp > block.timestamp, 'auction finished');\n        require(amount == msg.value, 'you have not send equal amount of ether');\n        Auction memory a = auctionList[auctionId];\n        require(amount >= a.minPrice, 'your bid is smaller than minPrice set by seller');\n        require(amount > a.bestBid.amount, 'your bid is not higher than previous best bid');\n        Bid memory prevBestBid = a.bestBid;\n        a.bestBid = Bid(bidder, amount);\n        auctionList[auctionId] = a;\n        if (prevBestBid.buyer != address(0)){\n            refundBid(prevBestBid);\n            emit BidRefund(auctionId, prevBestBid.buyer, prevBestBid.amount);\n        }\n        emit BidCreated(auctionId, bidder, amount);\n    }\n\n    function refundBid(Bid memory bid) private {\n        bid.buyer.transfer(bid.amount);\n    }\n\n    function getAuctionWinner(uint auctionId) public returns(address, uint){\n        return (auctionList[auctionId].bestBid.buyer, auctionList[auctionId].bestBid.amount);\n    }\n\n    function claimAuction(uint auctionId) external {\n        require(auctionList[auctionId].endTimestamp < block.timestamp, 'auction is not finished yet');\n        require(auctionList[auctionId].bestBid.buyer == msg.sender || auctionList[auctionId].seller == msg.sender,\n            'you did not win this auction');\n//        transfer token to buyer\n        require(auctionList[auctionId].claimed == false, 'auction already claimed');\n        auctionList[auctionId].claimed = true;\n        auctionList[auctionId].seller.transfer(auctionList[auctionId].bestBid.amount);\n        auctionList[auctionId].token.safeTransferFrom(\n            auctionList[auctionId].seller,\n            auctionList[auctionId].bestBid.buyer,\n            auctionList[auctionId].tokenId\n        );\n        emit AuctionClaimed(auctionId, auctionList[auctionId].seller, auctionList[auctionId].bestBid.buyer);\n    }\n\n    function getTime() public view returns (uint256) {\n        return block.timestamp;\n    }\n\n    function getAuctions() public view returns(Auction[] memory) {\n        return auctionList;\n    }\n}\n",
  "sourcePath": "/Users/darko/dev/ethereum/def-ebay/contracts/AuctionManager.sol",
  "compiler": {
    "name": "solc",
    "version": "0.8.0+commit.c7dfd78e.Emscripten.clang"
  },
  "schemaVersion": "3.4.1",
  "updatedAt": "2021-08-20T10:28:10.236Z",
  "networkType": "ethereum",
  "devdoc": {
    "kind": "dev",
    "methods": {},
    "version": 1
  },
  "userdoc": {
    "kind": "user",
    "methods": {},
    "version": 1
  }
}