{
  "contractName": "AuctionManager",
  "abi": [
    {
      "inputs": [],
      "stateMutability": "nonpayable",
      "type": "constructor"
    },
    {
      "anonymous": false,
      "inputs": [
        {
          "indexed": true,
          "internalType": "uint256",
          "name": "auctionId",
          "type": "uint256"
        },
        {
          "indexed": true,
          "internalType": "address",
          "name": "seller",
          "type": "address"
        },
        {
          "indexed": true,
          "internalType": "address",
          "name": "bidder",
          "type": "address"
        }
      ],
      "name": "AuctionClaimed",
      "type": "event"
    },
    {
      "anonymous": false,
      "inputs": [
        {
          "indexed": true,
          "internalType": "address",
          "name": "seller",
          "type": "address"
        },
        {
          "indexed": true,
          "internalType": "uint256",
          "name": "auctionId",
          "type": "uint256"
        },
        {
          "indexed": true,
          "internalType": "address",
          "name": "tokenAddress",
          "type": "address"
        },
        {
          "indexed": false,
          "internalType": "uint256",
          "name": "tokenId",
          "type": "uint256"
        }
      ],
      "name": "AuctionCreated",
      "type": "event"
    },
    {
      "anonymous": false,
      "inputs": [
        {
          "indexed": true,
          "internalType": "uint256",
          "name": "auctionId",
          "type": "uint256"
        },
        {
          "indexed": true,
          "internalType": "address",
          "name": "buyer",
          "type": "address"
        },
        {
          "indexed": false,
          "internalType": "uint256",
          "name": "amount",
          "type": "uint256"
        }
      ],
      "name": "BidCreated",
      "type": "event"
    },
    {
      "anonymous": false,
      "inputs": [
        {
          "indexed": true,
          "internalType": "uint256",
          "name": "auctionId",
          "type": "uint256"
        },
        {
          "indexed": true,
          "internalType": "address",
          "name": "buyer",
          "type": "address"
        },
        {
          "indexed": false,
          "internalType": "uint256",
          "name": "amount",
          "type": "uint256"
        }
      ],
      "name": "BidRefund",
      "type": "event"
    },
    {
      "inputs": [
        {
          "internalType": "uint256",
          "name": "",
          "type": "uint256"
        }
      ],
      "name": "auctionList",
      "outputs": [
        {
          "internalType": "uint256",
          "name": "id",
          "type": "uint256"
        },
        {
          "internalType": "address payable",
          "name": "seller",
          "type": "address"
        },
        {
          "components": [
            {
              "internalType": "address payable",
              "name": "buyer",
              "type": "address"
            },
            {
              "internalType": "uint256",
              "name": "amount",
              "type": "uint256"
            }
          ],
          "internalType": "struct AuctionManager.Bid",
          "name": "bestBid",
          "type": "tuple"
        },
        {
          "internalType": "uint256",
          "name": "minPrice",
          "type": "uint256"
        },
        {
          "internalType": "uint256",
          "name": "endTimestamp",
          "type": "uint256"
        },
        {
          "internalType": "contract IERC721",
          "name": "token",
          "type": "address"
        },
        {
          "internalType": "uint256",
          "name": "tokenId",
          "type": "uint256"
        },
        {
          "internalType": "bool",
          "name": "claimed",
          "type": "bool"
        }
      ],
      "stateMutability": "view",
      "type": "function"
    },
    {
      "inputs": [
        {
          "internalType": "uint256",
          "name": "minPrice",
          "type": "uint256"
        },
        {
          "internalType": "uint256",
          "name": "endTimestamp",
          "type": "uint256"
        },
        {
          "internalType": "address",
          "name": "tokenAddress",
          "type": "address"
        },
        {
          "internalType": "uint256",
          "name": "tokenId",
          "type": "uint256"
        }
      ],
      "name": "createAuction",
      "outputs": [
        {
          "internalType": "uint256",
          "name": "",
          "type": "uint256"
        }
      ],
      "stateMutability": "nonpayable",
      "type": "function"
    },
    {
      "inputs": [
        {
          "internalType": "uint256",
          "name": "auctionId",
          "type": "uint256"
        },
        {
          "internalType": "uint256",
          "name": "amount",
          "type": "uint256"
        },
        {
          "internalType": "address payable",
          "name": "bidder",
          "type": "address"
        }
      ],
      "name": "placeBid",
      "outputs": [],
      "stateMutability": "payable",
      "type": "function"
    },
    {
      "inputs": [
        {
          "internalType": "uint256",
          "name": "auctionId",
          "type": "uint256"
        }
      ],
      "name": "getAuctionWinner",
      "outputs": [
        {
          "internalType": "address",
          "name": "",
          "type": "address"
        },
        {
          "internalType": "uint256",
          "name": "",
          "type": "uint256"
        }
      ],
      "stateMutability": "nonpayable",
      "type": "function"
    },
    {
      "inputs": [
        {
          "internalType": "uint256",
          "name": "auctionId",
          "type": "uint256"
        }
      ],
      "name": "claimAuction",
      "outputs": [],
      "stateMutability": "nonpayable",
      "type": "function"
    }
  ],
  "bytecode": "0x608060405234801561001057600080fd5b506001600081905550611b86806100286000396000f3fe60806040526004361061004a5760003560e01c8063083d353b1461004f578063669c00831461008d5780639aafc6c9146100d1578063ad6561ec146100fa578063b1cb48ef14610116575b600080fd5b34801561005b57600080fd5b50610076600480360381019061007191906113d2565b610153565b604051610084929190611863565b60405180910390f35b34801561009957600080fd5b506100b460048036038101906100af91906113d2565b61021d565b6040516100c89897969594939291906119c7565b60405180910390f35b3480156100dd57600080fd5b506100f860048036038101906100f391906113d2565b61032c565b005b610114600480360381019061010f91906113fb565b610a6d565b005b34801561012257600080fd5b5061013d6004803603810190610138919061144a565b611087565b60405161014a91906119ac565b60405180910390f35b60008060018381548110610190577f4e487b7100000000000000000000000000000000000000000000000000000000600052603260045260246000fd5b906000526020600020906009020160020160000160009054906101000a900473ffffffffffffffffffffffffffffffffffffffff16600184815481106101ff577f4e487b7100000000000000000000000000000000000000000000000000000000600052603260045260246000fd5b90600052602060002090600902016002016001015491509150915091565b6001818154811061022d57600080fd5b90600052602060002090600902016000915090508060000154908060010160009054906101000a900473ffffffffffffffffffffffffffffffffffffffff1690806002016040518060400160405290816000820160009054906101000a900473ffffffffffffffffffffffffffffffffffffffff1673ffffffffffffffffffffffffffffffffffffffff1673ffffffffffffffffffffffffffffffffffffffff168152602001600182015481525050908060040154908060050154908060060160009054906101000a900473ffffffffffffffffffffffffffffffffffffffff16908060070154908060080160009054906101000a900460ff16905088565b4260018281548110610367577f4e487b7100000000000000000000000000000000000000000000000000000000600052603260045260246000fd5b906000526020600020906009020160050154106103b9576040517f08c379a00000000000000000000000000000000000000000000000000000000081526004016103b09061194c565b60405180910390fd5b3373ffffffffffffffffffffffffffffffffffffffff166001828154811061040a577f4e487b7100000000000000000000000000000000000000000000000000000000600052603260045260246000fd5b906000526020600020906009020160020160000160009054906101000a900473ffffffffffffffffffffffffffffffffffffffff1673ffffffffffffffffffffffffffffffffffffffff1614806104f757503373ffffffffffffffffffffffffffffffffffffffff16600182815481106104ad577f4e487b7100000000000000000000000000000000000000000000000000000000600052603260045260246000fd5b906000526020600020906009020160010160009054906101000a900473ffffffffffffffffffffffffffffffffffffffff1673ffffffffffffffffffffffffffffffffffffffff16145b610536576040517f08c379a000000000000000000000000000000000000000000000000000000000815260040161052d9061192c565b60405180910390fd5b6000151560018281548110610574577f4e487b7100000000000000000000000000000000000000000000000000000000600052603260045260246000fd5b906000526020600020906009020160080160009054906101000a900460ff161515146105d5576040517f08c379a00000000000000000000000000000000000000000000000000000000081526004016105cc906118ac565b60405180910390fd5b6001808281548110610610577f4e487b7100000000000000000000000000000000000000000000000000000000600052603260045260246000fd5b906000526020600020906009020160080160006101000a81548160ff02191690831515021790555060018181548110610672577f4e487b7100000000000000000000000000000000000000000000000000000000600052603260045260246000fd5b906000526020600020906009020160010160009054906101000a900473ffffffffffffffffffffffffffffffffffffffff1673ffffffffffffffffffffffffffffffffffffffff166108fc600183815481106106f7577f4e487b7100000000000000000000000000000000000000000000000000000000600052603260045260246000fd5b9060005260206000209060090201600201600101549081150290604051600060405180830381858888f19350505050158015610737573d6000803e3d6000fd5b5060018181548110610772577f4e487b7100000000000000000000000000000000000000000000000000000000600052603260045260246000fd5b906000526020600020906009020160060160009054906101000a900473ffffffffffffffffffffffffffffffffffffffff1673ffffffffffffffffffffffffffffffffffffffff166342842e0e600183815481106107f9577f4e487b7100000000000000000000000000000000000000000000000000000000600052603260045260246000fd5b906000526020600020906009020160010160009054906101000a900473ffffffffffffffffffffffffffffffffffffffff1660018481548110610865577f4e487b7100000000000000000000000000000000000000000000000000000000600052603260045260246000fd5b906000526020600020906009020160020160000160009054906101000a900473ffffffffffffffffffffffffffffffffffffffff16600185815481106108d4577f4e487b7100000000000000000000000000000000000000000000000000000000600052603260045260246000fd5b9060005260206000209060090201600701546040518463ffffffff1660e01b81526004016109049392919061182c565b600060405180830381600087803b15801561091e57600080fd5b505af1158015610932573d6000803e3d6000fd5b5050505060018181548110610970577f4e487b7100000000000000000000000000000000000000000000000000000000600052603260045260246000fd5b906000526020600020906009020160020160000160009054906101000a900473ffffffffffffffffffffffffffffffffffffffff1673ffffffffffffffffffffffffffffffffffffffff16600182815481106109f5577f4e487b7100000000000000000000000000000000000000000000000000000000600052603260045260246000fd5b906000526020600020906009020160010160009054906101000a900473ffffffffffffffffffffffffffffffffffffffff1673ffffffffffffffffffffffffffffffffffffffff16827f0ed794ed3998d4208e14b80f794d9ecb1699fdfb1359ff8fbb9044f9783489b660405160405180910390a450565b60026000541415610ab3576040517f08c379a0000000000000000000000000000000000000000000000000000000008152600401610aaa9061196c565b60405180910390fd5b60026000819055504260018481548110610af6577f4e487b7100000000000000000000000000000000000000000000000000000000600052603260045260246000fd5b90600052602060002090600902016005015411610b48576040517f08c379a0000000000000000000000000000000000000000000000000000000008152600401610b3f9061190c565b60405180910390fd5b348214610b8a576040517f08c379a0000000000000000000000000000000000000000000000000000000008152600401610b819061198c565b60405180910390fd5b600060018481548110610bc6577f4e487b7100000000000000000000000000000000000000000000000000000000600052603260045260246000fd5b906000526020600020906009020160405180610100016040529081600082015481526020016001820160009054906101000a900473ffffffffffffffffffffffffffffffffffffffff1673ffffffffffffffffffffffffffffffffffffffff1673ffffffffffffffffffffffffffffffffffffffff168152602001600282016040518060400160405290816000820160009054906101000a900473ffffffffffffffffffffffffffffffffffffffff1673ffffffffffffffffffffffffffffffffffffffff1673ffffffffffffffffffffffffffffffffffffffff168152602001600182015481525050815260200160048201548152602001600582015481526020016006820160009054906101000a900473ffffffffffffffffffffffffffffffffffffffff1673ffffffffffffffffffffffffffffffffffffffff1673ffffffffffffffffffffffffffffffffffffffff168152602001600782015481526020016008820160009054906101000a900460ff16151515158152505090508060600151831015610d8c576040517f08c379a0000000000000000000000000000000000000000000000000000000008152600401610d83906118cc565b60405180910390fd5b8060400151602001518311610dd6576040517f08c379a0000000000000000000000000000000000000000000000000000000008152600401610dcd9061188c565b60405180910390fd5b60008160400151905060405180604001604052808473ffffffffffffffffffffffffffffffffffffffff1681526020018581525082604001819052508160018681548110610e4d577f4e487b7100000000000000000000000000000000000000000000000000000000600052603260045260246000fd5b90600052602060002090600902016000820151816000015560208201518160010160006101000a81548173ffffffffffffffffffffffffffffffffffffffff021916908373ffffffffffffffffffffffffffffffffffffffff16021790555060408201518160020160008201518160000160006101000a81548173ffffffffffffffffffffffffffffffffffffffff021916908373ffffffffffffffffffffffffffffffffffffffff160217905550602082015181600101555050606082015181600401556080820151816005015560a08201518160060160006101000a81548173ffffffffffffffffffffffffffffffffffffffff021916908373ffffffffffffffffffffffffffffffffffffffff16021790555060c0820151816007015560e08201518160080160006101000a81548160ff021916908315150217905550905050600073ffffffffffffffffffffffffffffffffffffffff16816000015173ffffffffffffffffffffffffffffffffffffffff161461102957610fd181611341565b806000015173ffffffffffffffffffffffffffffffffffffffff16857f81f21d91e6abb502b36c7adfa1e0920a81cff658f5d8a7c7efb0baccd093090c836020015160405161102091906119ac565b60405180910390a35b8273ffffffffffffffffffffffffffffffffffffffff16857f0bda7f7cf42011b27b057b83f3bf21f963b84eb591478e6b413b18d7872cd37a8660405161107091906119ac565b60405180910390a350506001600081905550505050565b60004284116110cb576040517f08c379a00000000000000000000000000000000000000000000000000000000081526004016110c2906118ec565b60405180910390fd5b60006001805490509050600084905060016040518061010001604052808481526020013373ffffffffffffffffffffffffffffffffffffffff1681526020016040518060400160405280600073ffffffffffffffffffffffffffffffffffffffff168152602001600081525081526020018981526020018881526020018373ffffffffffffffffffffffffffffffffffffffff1681526020018681526020016000151581525090806001815401808255809150506001900390600052602060002090600902016000909190919091506000820151816000015560208201518160010160006101000a81548173ffffffffffffffffffffffffffffffffffffffff021916908373ffffffffffffffffffffffffffffffffffffffff16021790555060408201518160020160008201518160000160006101000a81548173ffffffffffffffffffffffffffffffffffffffff021916908373ffffffffffffffffffffffffffffffffffffffff160217905550602082015181600101555050606082015181600401556080820151816005015560a08201518160060160006101000a81548173ffffffffffffffffffffffffffffffffffffffff021916908373ffffffffffffffffffffffffffffffffffffffff16021790555060c0820151816007015560e08201518160080160006101000a81548160ff02191690831515021790555050508473ffffffffffffffffffffffffffffffffffffffff16823373ffffffffffffffffffffffffffffffffffffffff167fc020eaff962593ba4d8f22dfe59abd3cefe8dbdc11d3cf03db31a97ef4041fda8760405161132c91906119ac565b60405180910390a48192505050949350505050565b806000015173ffffffffffffffffffffffffffffffffffffffff166108fc82602001519081150290604051600060405180830381858888f1935050505015801561138f573d6000803e3d6000fd5b5050565b6000813590506113a281611b0b565b92915050565b6000813590506113b781611b22565b92915050565b6000813590506113cc81611b39565b92915050565b6000602082840312156113e457600080fd5b60006113f2848285016113bd565b91505092915050565b60008060006060848603121561141057600080fd5b600061141e868287016113bd565b935050602061142f868287016113bd565b9250506040611440868287016113a8565b9150509250925092565b6000806000806080858703121561146057600080fd5b600061146e878288016113bd565b945050602061147f878288016113bd565b935050604061149087828801611393565b92505060606114a1878288016113bd565b91505092959194509250565b6114b681611ab1565b82525050565b6114c581611a69565b82525050565b6114d481611a69565b82525050565b6114e381611a57565b82525050565b6114f281611a7b565b82525050565b61150181611ac3565b82525050565b6000611514602d83611a46565b91507f796f757220626964206973206e6f7420686967686572207468616e207072657660008301527f696f7573206265737420626964000000000000000000000000000000000000006020830152604082019050919050565b600061157a601783611a46565b91507f61756374696f6e20616c726561647920636c61696d65640000000000000000006000830152602082019050919050565b60006115ba602f83611a46565b91507f796f75722062696420697320736d616c6c6572207468616e206d696e5072696360008301527f65207365742062792073656c6c657200000000000000000000000000000000006020830152604082019050919050565b6000611620602783611a46565b91507f61756374696f6e20656e642074696d657374616d70206d75737420626520696e60008301527f20667574757265000000000000000000000000000000000000000000000000006020830152604082019050919050565b6000611686601083611a46565b91507f61756374696f6e2066696e6973686564000000000000000000000000000000006000830152602082019050919050565b60006116c6601c83611a46565b91507f796f7520646964206e6f742077696e20746869732061756374696f6e000000006000830152602082019050919050565b6000611706601b83611a46565b91507f61756374696f6e206973206e6f742066696e69736865642079657400000000006000830152602082019050919050565b6000611746601f83611a46565b91507f5265656e7472616e637947756172643a207265656e7472616e742063616c6c006000830152602082019050919050565b6000611786602783611a46565b91507f796f752068617665206e6f742073656e6420657175616c20616d6f756e74206f60008301527f66206574686572000000000000000000000000000000000000000000000000006020830152604082019050919050565b6040820160008201516117f560008501826114bc565b506020820151611808602085018261180e565b50505050565b61181781611aa7565b82525050565b61182681611aa7565b82525050565b600060608201905061184160008301866114ad565b61184e60208301856114ad565b61185b604083018461181d565b949350505050565b600060408201905061187860008301856114da565b611885602083018461181d565b9392505050565b600060208201905081810360008301526118a581611507565b9050919050565b600060208201905081810360008301526118c58161156d565b9050919050565b600060208201905081810360008301526118e5816115ad565b9050919050565b6000602082019050818103600083015261190581611613565b9050919050565b6000602082019050818103600083015261192581611679565b9050919050565b60006020820190508181036000830152611945816116b9565b9050919050565b60006020820190508181036000830152611965816116f9565b9050919050565b6000602082019050818103600083015261198581611739565b9050919050565b600060208201905081810360008301526119a581611779565b9050919050565b60006020820190506119c1600083018461181d565b92915050565b6000610120820190506119dd600083018b61181d565b6119ea602083018a6114cb565b6119f760408301896117df565b611a04608083018861181d565b611a1160a083018761181d565b611a1e60c08301866114f8565b611a2b60e083018561181d565b611a396101008301846114e9565b9998505050505050505050565b600082825260208201905092915050565b6000611a6282611a87565b9050919050565b6000611a7482611a87565b9050919050565b60008115159050919050565b600073ffffffffffffffffffffffffffffffffffffffff82169050919050565b6000819050919050565b6000611abc82611ae7565b9050919050565b6000611ace82611ad5565b9050919050565b6000611ae082611a87565b9050919050565b6000611af282611af9565b9050919050565b6000611b0482611a87565b9050919050565b611b1481611a57565b8114611b1f57600080fd5b50565b611b2b81611a69565b8114611b3657600080fd5b50565b611b4281611aa7565b8114611b4d57600080fd5b5056fea26469706673582212206c9d6dc045615004e5e58123a11c683f3fc115de6db58e8604f9144a1dfe7ab464736f6c63430008000033",
  "immutableReferences": {},
  "source": "pragma solidity ^0.8.0;\n\nimport '@openzeppelin/contracts/security/ReentrancyGuard.sol';\nimport \"@openzeppelin/contracts/token/ERC721/IERC721.sol\";\n\ncontract AuctionManager is ReentrancyGuard {\n\n    struct Bid {\n        address payable buyer;\n        uint amount;\n    }\n\n    struct Auction {\n        uint id;\n        address payable seller;\n        Bid bestBid;\n        uint minPrice;\n        uint endTimestamp;\n        IERC721 token;\n        uint tokenId;\n        bool claimed;\n    }\n\n    Auction[] public auctionList;\n\n    event AuctionCreated(address indexed seller, uint indexed auctionId, address indexed tokenAddress, uint tokenId);\n    event AuctionClaimed(uint indexed auctionId, address indexed seller, address indexed bidder);\n    event BidCreated(uint indexed auctionId, address indexed buyer, uint amount);\n    event BidRefund(uint indexed auctionId, address indexed buyer, uint amount);\n\n    constructor(){}\n\n    function createAuction(uint minPrice, uint endTimestamp, address tokenAddress, uint tokenId) external returns(uint) {\n        require(endTimestamp > block.timestamp, 'auction end timestamp must be in future');\n        uint auctionId = auctionList.length;\n        IERC721 tokenContract = IERC721(tokenAddress);\n        auctionList.push(Auction(\n            auctionId,\n            payable(msg.sender),\n            Bid(payable(address(0)), 0),\n            minPrice,\n            endTimestamp,\n            tokenContract,\n            tokenId,\n            false\n        ));\n        emit AuctionCreated(msg.sender, auctionId, tokenAddress, tokenId);\n        return auctionId;\n    }\n\n    function placeBid(uint auctionId, uint amount, address payable bidder) nonReentrant external payable{\n        require(auctionList[auctionId].endTimestamp > block.timestamp, 'auction finished');\n        require(amount == msg.value, 'you have not send equal amount of ether');\n        Auction memory a = auctionList[auctionId];\n        require(amount >= a.minPrice, 'your bid is smaller than minPrice set by seller');\n        require(amount > a.bestBid.amount, 'your bid is not higher than previous best bid');\n        Bid memory prevBestBid = a.bestBid;\n        a.bestBid = Bid(bidder, amount);\n        auctionList[auctionId] = a;\n        if (prevBestBid.buyer != address(0)){\n            refundBid(prevBestBid);\n            emit BidRefund(auctionId, prevBestBid.buyer, prevBestBid.amount);\n        }\n        emit BidCreated(auctionId, bidder, amount);\n    }\n\n    function refundBid(Bid memory bid) private {\n        bid.buyer.transfer(bid.amount);\n    }\n\n    function getAuctionWinner(uint auctionId) public returns(address, uint){\n        return (auctionList[auctionId].bestBid.buyer, auctionList[auctionId].bestBid.amount);\n    }\n\n    function claimAuction(uint auctionId) external {\n        require(auctionList[auctionId].endTimestamp < block.timestamp, 'auction is not finished yet');\n        require(auctionList[auctionId].bestBid.buyer == msg.sender || auctionList[auctionId].seller == msg.sender,\n            'you did not win this auction');\n//        transfer token to buyer\n        require(auctionList[auctionId].claimed == false, 'auction already claimed');\n        auctionList[auctionId].claimed = true;\n        auctionList[auctionId].seller.transfer(auctionList[auctionId].bestBid.amount);\n        auctionList[auctionId].token.safeTransferFrom(\n            auctionList[auctionId].seller,\n            auctionList[auctionId].bestBid.buyer,\n            auctionList[auctionId].tokenId\n        );\n        emit AuctionClaimed(auctionId, auctionList[auctionId].seller, auctionList[auctionId].bestBid.buyer);\n    }\n    function getTime() internal view returns (uint256) {\n        return block.timestamp;\n    }\n}\n",
  "sourcePath": "/Users/darko/dev/ethereum/def-ebay/contracts/AuctionManager.sol",
  "compiler": {
    "name": "solc",
    "version": "0.8.0+commit.c7dfd78e.Emscripten.clang"
  },
  "schemaVersion": "3.4.1",
  "updatedAt": "2021-08-09T13:14:15.149Z",
  "devdoc": {
    "kind": "dev",
    "methods": {},
    "version": 1
  },
  "userdoc": {
    "kind": "user",
    "methods": {},
    "version": 1
  }
}